{
  "_format": "hh-sol-artifact-1",
  "contractName": "Deposit",
  "sourceName": "contracts/Deposit.sol",
  "abi": [
    {
      "inputs": [
        {
          "internalType": "address",
          "name": "_qve",
          "type": "address"
        },
        {
          "internalType": "address",
          "name": "_usdt",
          "type": "address"
        },
        {
          "internalType": "address",
          "name": "_qveNft",
          "type": "address"
        }
      ],
      "stateMutability": "nonpayable",
      "type": "constructor"
    },
    {
      "inputs": [
        {
          "internalType": "address",
          "name": "_tokenType",
          "type": "address"
        },
        {
          "internalType": "uint256",
          "name": "_amount",
          "type": "uint256"
        },
        {
          "internalType": "string",
          "name": "tokenURI",
          "type": "string"
        }
      ],
      "name": "deposit",
      "outputs": [],
      "stateMutability": "nonpayable",
      "type": "function"
    },
    {
      "inputs": [],
      "name": "qve",
      "outputs": [
        {
          "internalType": "contract IERC20",
          "name": "",
          "type": "address"
        }
      ],
      "stateMutability": "view",
      "type": "function"
    },
    {
      "inputs": [],
      "name": "qveNft",
      "outputs": [
        {
          "internalType": "contract QveNFT",
          "name": "",
          "type": "address"
        }
      ],
      "stateMutability": "view",
      "type": "function"
    },
    {
      "inputs": [],
      "name": "usdt",
      "outputs": [
        {
          "internalType": "contract IERC20",
          "name": "",
          "type": "address"
        }
      ],
      "stateMutability": "view",
      "type": "function"
    }
  ],
  "bytecode": "0x608060405234801561001057600080fd5b5060405161099a38038061099a83398181016040528101906100329190610111565b826000806101000a81548173ffffffffffffffffffffffffffffffffffffffff021916908373ffffffffffffffffffffffffffffffffffffffff16021790555081600160006101000a81548173ffffffffffffffffffffffffffffffffffffffff021916908373ffffffffffffffffffffffffffffffffffffffff16021790555080600260006101000a81548173ffffffffffffffffffffffffffffffffffffffff021916908373ffffffffffffffffffffffffffffffffffffffff1602179055505050506101a9565b60008151905061010b81610192565b92915050565b60008060006060848603121561012657600080fd5b6000610134868287016100fc565b9350506020610145868287016100fc565b9250506040610156868287016100fc565b9150509250925092565b600061016b82610172565b9050919050565b600073ffffffffffffffffffffffffffffffffffffffff82169050919050565b61019b81610160565b81146101a657600080fd5b50565b6107e2806101b86000396000f3fe608060405234801561001057600080fd5b506004361061004c5760003560e01c80630ad23534146100515780632f48ab7d1461006f578063863ea36e1461008d578063bfe07da6146100ab575b600080fd5b6100596100c7565b604051610066919061054e565b60405180910390f35b6100776100ed565b6040516100849190610533565b60405180910390f35b610095610113565b6040516100a29190610533565b60405180910390f35b6100c560048036038101906100c0919061037b565b610137565b005b600260009054906101000a900473ffffffffffffffffffffffffffffffffffffffff1681565b600160009054906101000a900473ffffffffffffffffffffffffffffffffffffffff1681565b60008054906101000a900473ffffffffffffffffffffffffffffffffffffffff1681565b6000821161017a576040517f08c379a000000000000000000000000000000000000000000000000000000000815260040161017190610569565b60405180910390fd5b8273ffffffffffffffffffffffffffffffffffffffff166323b872dd3330856040518463ffffffff1660e01b81526004016101b7939291906104cc565b602060405180830381600087803b1580156101d157600080fd5b505af11580156101e5573d6000803e3d6000fd5b505050506040513d601f19601f8201168201806040525081019061020991906103e2565b50600260009054906101000a900473ffffffffffffffffffffffffffffffffffffffff1673ffffffffffffffffffffffffffffffffffffffff1663eacabe1433836040518363ffffffff1660e01b8152600401610267929190610503565b602060405180830381600087803b15801561028157600080fd5b505af1158015610295573d6000803e3d6000fd5b505050506040513d601f19601f820116820180604052508101906102b9919061040b565b50505050565b60006102d26102cd846105ae565b610589565b9050828152602081018484840111156102ea57600080fd5b6102f584828561068b565b509392505050565b60008135905061030c81610767565b92915050565b6000815190506103218161077e565b92915050565b600082601f83011261033857600080fd5b81356103488482602086016102bf565b91505092915050565b60008135905061036081610795565b92915050565b60008151905061037581610795565b92915050565b60008060006060848603121561039057600080fd5b600061039e868287016102fd565b93505060206103af86828701610351565b925050604084013567ffffffffffffffff8111156103cc57600080fd5b6103d886828701610327565b9150509250925092565b6000602082840312156103f457600080fd5b600061040284828501610312565b91505092915050565b60006020828403121561041d57600080fd5b600061042b84828501610366565b91505092915050565b61043d816105fb565b82525050565b61044c81610643565b82525050565b61045b81610667565b82525050565b600061046c826105df565b61047681856105ea565b935061048681856020860161069a565b61048f8161072d565b840191505092915050565b60006104a76012836105ea565b91506104b28261073e565b602082019050919050565b6104c681610639565b82525050565b60006060820190506104e16000830186610434565b6104ee6020830185610434565b6104fb60408301846104bd565b949350505050565b60006040820190506105186000830185610434565b818103602083015261052a8184610461565b90509392505050565b60006020820190506105486000830184610443565b92915050565b60006020820190506105636000830184610452565b92915050565b600060208201905081810360008301526105828161049a565b9050919050565b60006105936105a4565b905061059f82826106cd565b919050565b6000604051905090565b600067ffffffffffffffff8211156105c9576105c86106fe565b5b6105d28261072d565b9050602081019050919050565b600081519050919050565b600082825260208201905092915050565b600061060682610619565b9050919050565b60008115159050919050565b600073ffffffffffffffffffffffffffffffffffffffff82169050919050565b6000819050919050565b600061064e82610655565b9050919050565b600061066082610619565b9050919050565b600061067282610679565b9050919050565b600061068482610619565b9050919050565b82818337600083830152505050565b60005b838110156106b857808201518184015260208101905061069d565b838111156106c7576000848401525b50505050565b6106d68261072d565b810181811067ffffffffffffffff821117156106f5576106f46106fe565b5b80604052505050565b7f4e487b7100000000000000000000000000000000000000000000000000000000600052604160045260246000fd5b6000601f19601f8301169050919050565b7f616d6f756e742063616e6e6f7420626520300000000000000000000000000000600082015250565b610770816105fb565b811461077b57600080fd5b50565b6107878161060d565b811461079257600080fd5b50565b61079e81610639565b81146107a957600080fd5b5056fea264697066735822122075cd0cb99219dfe88cd64d1fc510e2df32d34598f270faeeea13c43de47d467d64736f6c63430008010033",
  "linkReferences": {},
  "deployedLinkReferences": {}
}