{
  "_format": "hh-sol-artifact-1",
  "contractName": "DynamicSwap",
  "sourceName": "contracts/DynamicSwap.sol",
  "abi": [
    {
      "inputs": [],
      "stateMutability": "nonpayable",
      "type": "constructor"
    },
    {
      "inputs": [
        {
          "internalType": "uint256",
          "name": "poolId",
          "type": "uint256"
        },
        {
          "internalType": "uint256",
          "name": "amountToken1",
          "type": "uint256"
        },
        {
          "internalType": "uint256",
          "name": "amountToken2",
          "type": "uint256"
        }
      ],
      "name": "addLiquidity",
      "outputs": [],
      "stateMutability": "nonpayable",
      "type": "function"
    },
    {
      "inputs": [
        {
          "internalType": "address",
          "name": "_token1",
          "type": "address"
        },
        {
          "internalType": "address",
          "name": "_token2",
          "type": "address"
        }
      ],
      "name": "createPool",
      "outputs": [],
      "stateMutability": "nonpayable",
      "type": "function"
    },
    {
      "inputs": [],
      "name": "nextPoolId",
      "outputs": [
        {
          "internalType": "uint256",
          "name": "",
          "type": "uint256"
        }
      ],
      "stateMutability": "view",
      "type": "function"
    },
    {
      "inputs": [],
      "name": "owner",
      "outputs": [
        {
          "internalType": "address",
          "name": "",
          "type": "address"
        }
      ],
      "stateMutability": "view",
      "type": "function"
    },
    {
      "inputs": [
        {
          "internalType": "uint256",
          "name": "",
          "type": "uint256"
        }
      ],
      "name": "pools",
      "outputs": [
        {
          "internalType": "contract IERC20",
          "name": "token1",
          "type": "address"
        },
        {
          "internalType": "contract IERC20",
          "name": "token2",
          "type": "address"
        },
        {
          "internalType": "uint256",
          "name": "token1Liquidity",
          "type": "uint256"
        },
        {
          "internalType": "uint256",
          "name": "token2Liquidity",
          "type": "uint256"
        }
      ],
      "stateMutability": "view",
      "type": "function"
    },
    {
      "inputs": [
        {
          "internalType": "uint256",
          "name": "poolId",
          "type": "uint256"
        },
        {
          "internalType": "uint256",
          "name": "amountToken1",
          "type": "uint256"
        },
        {
          "internalType": "uint256",
          "name": "amountToken2",
          "type": "uint256"
        }
      ],
      "name": "removeLiquidity",
      "outputs": [],
      "stateMutability": "nonpayable",
      "type": "function"
    },
    {
      "inputs": [
        {
          "internalType": "uint256",
          "name": "poolId",
          "type": "uint256"
        },
        {
          "internalType": "address",
          "name": "tokenIn",
          "type": "address"
        },
        {
          "internalType": "uint256",
          "name": "amountIn",
          "type": "uint256"
        }
      ],
      "name": "swap",
      "outputs": [],
      "stateMutability": "nonpayable",
      "type": "function"
    }
  ],
  "bytecode": "0x608060405234801561001057600080fd5b5033600260006101000a81548173ffffffffffffffffffffffffffffffffffffffff021916908373ffffffffffffffffffffffffffffffffffffffff1602179055506114c1806100616000396000f3fe608060405234801561001057600080fd5b506004361061007d5760003560e01c8063857620e11161005b578063857620e1146100d85780638da5cb5b146100f4578063ac4afa3814610112578063e3433615146101455761007d565b806318e5613114610082578063422f1043146100a057806343264349146100bc575b600080fd5b61008a610161565b60405161009791906110fc565b60405180910390f35b6100ba60048036038101906100b59190610e2e565b610167565b005b6100d660048036038101906100d19190610ddf565b61039d565b005b6100f260048036038101906100ed9190610e2e565b6107af565b005b6100fc610ac8565b6040516101099190610f7c565b60405180910390f35b61012c60048036038101906101279190610db6565b610aee565b60405161013c9493929190610ff7565b60405180910390f35b61015f600480360381019061015a9190610d51565b610b5e565b005b60015481565b600080600085815260200190815260200160002090508060000160009054906101000a900473ffffffffffffffffffffffffffffffffffffffff1673ffffffffffffffffffffffffffffffffffffffff166323b872dd3330866040518463ffffffff1660e01b81526004016101de93929190610f97565b602060405180830381600087803b1580156101f857600080fd5b505af115801561020c573d6000803e3d6000fd5b505050506040513d601f19601f820116820180604052508101906102309190610d8d565b61026f576040517f08c379a00000000000000000000000000000000000000000000000000000000081526004016102669061109c565b60405180910390fd5b8060010160009054906101000a900473ffffffffffffffffffffffffffffffffffffffff1673ffffffffffffffffffffffffffffffffffffffff166323b872dd3330856040518463ffffffff1660e01b81526004016102d093929190610f97565b602060405180830381600087803b1580156102ea57600080fd5b505af11580156102fe573d6000803e3d6000fd5b505050506040513d601f19601f820116820180604052508101906103229190610d8d565b610361576040517f08c379a0000000000000000000000000000000000000000000000000000000008152600401610358906110bc565b60405180910390fd5b828160020160008282546103759190611128565b92505081905550818160030160008282546103909190611128565b9250508190555050505050565b600080600085815260200190815260200160002090508060000160009054906101000a900473ffffffffffffffffffffffffffffffffffffffff1673ffffffffffffffffffffffffffffffffffffffff168373ffffffffffffffffffffffffffffffffffffffff16148061046057508060010160009054906101000a900473ffffffffffffffffffffffffffffffffffffffff1673ffffffffffffffffffffffffffffffffffffffff168373ffffffffffffffffffffffffffffffffffffffff16145b61049f576040517f08c379a00000000000000000000000000000000000000000000000000000000081526004016104969061105c565b60405180910390fd5b60008160000160009054906101000a900473ffffffffffffffffffffffffffffffffffffffff1673ffffffffffffffffffffffffffffffffffffffff168473ffffffffffffffffffffffffffffffffffffffff16149050600081610527578260000160009054906101000a900473ffffffffffffffffffffffffffffffffffffffff1661054d565b8260010160009054906101000a900473ffffffffffffffffffffffffffffffffffffffff165b9050600082610560578360020154610566565b83600301545b9050600081116105ab576040517f08c379a00000000000000000000000000000000000000000000000000000000081526004016105a29061103c565b60405180910390fd5b8573ffffffffffffffffffffffffffffffffffffffff166323b872dd3330886040518463ffffffff1660e01b81526004016105e893929190610f97565b602060405180830381600087803b15801561060257600080fd5b505af1158015610616573d6000803e3d6000fd5b505050506040513d601f19601f8201168201806040525081019061063a9190610d8d565b50600081866106499190611128565b828761065591906111af565b61065f919061117e565b90508273ffffffffffffffffffffffffffffffffffffffff1663a9059cbb33836040518363ffffffff1660e01b815260040161069c929190610fce565b602060405180830381600087803b1580156106b657600080fd5b505af11580156106ca573d6000803e3d6000fd5b505050506040513d601f19601f820116820180604052508101906106ee9190610d8d565b61072d576040517f08c379a0000000000000000000000000000000000000000000000000000000008152600401610724906110dc565b60405180910390fd5b831561076e57858560020160008282546107479190611128565b92505081905550808560030160008282546107629190611209565b925050819055506107a5565b808560020160008282546107829190611209565b925050819055508585600301600082825461079d9190611128565b925050819055505b5050505050505050565b600260009054906101000a900473ffffffffffffffffffffffffffffffffffffffff1673ffffffffffffffffffffffffffffffffffffffff163373ffffffffffffffffffffffffffffffffffffffff161461083f576040517f08c379a00000000000000000000000000000000000000000000000000000000081526004016108369061107c565b60405180910390fd5b600080600085815260200190815260200160002090508281600201541015801561086d575081816003015410155b6108ac576040517f08c379a00000000000000000000000000000000000000000000000000000000081526004016108a39061103c565b60405180910390fd5b8060000160009054906101000a900473ffffffffffffffffffffffffffffffffffffffff1673ffffffffffffffffffffffffffffffffffffffff1663a9059cbb33856040518363ffffffff1660e01b815260040161090b929190610fce565b602060405180830381600087803b15801561092557600080fd5b505af1158015610939573d6000803e3d6000fd5b505050506040513d601f19601f8201168201806040525081019061095d9190610d8d565b61099c576040517f08c379a00000000000000000000000000000000000000000000000000000000081526004016109939061109c565b60405180910390fd5b8060010160009054906101000a900473ffffffffffffffffffffffffffffffffffffffff1673ffffffffffffffffffffffffffffffffffffffff1663a9059cbb33846040518363ffffffff1660e01b81526004016109fb929190610fce565b602060405180830381600087803b158015610a1557600080fd5b505af1158015610a29573d6000803e3d6000fd5b505050506040513d601f19601f82011682018060405250810190610a4d9190610d8d565b610a8c576040517f08c379a0000000000000000000000000000000000000000000000000000000008152600401610a83906110bc565b60405180910390fd5b82816002016000828254610aa09190611209565b9250508190555081816003016000828254610abb9190611209565b9250508190555050505050565b600260009054906101000a900473ffffffffffffffffffffffffffffffffffffffff1681565b60006020528060005260406000206000915090508060000160009054906101000a900473ffffffffffffffffffffffffffffffffffffffff16908060010160009054906101000a900473ffffffffffffffffffffffffffffffffffffffff16908060020154908060030154905084565b600260009054906101000a900473ffffffffffffffffffffffffffffffffffffffff1673ffffffffffffffffffffffffffffffffffffffff163373ffffffffffffffffffffffffffffffffffffffff1614610bee576040517f08c379a0000000000000000000000000000000000000000000000000000000008152600401610be59061107c565b60405180910390fd5b60405180608001604052808373ffffffffffffffffffffffffffffffffffffffff1681526020018273ffffffffffffffffffffffffffffffffffffffff168152602001600081526020016000815250600080600154815260200190815260200160002060008201518160000160006101000a81548173ffffffffffffffffffffffffffffffffffffffff021916908373ffffffffffffffffffffffffffffffffffffffff16021790555060208201518160010160006101000a81548173ffffffffffffffffffffffffffffffffffffffff021916908373ffffffffffffffffffffffffffffffffffffffff160217905550604082015181600201556060820151816003015590505060016000815480929190610d09906112a9565b91905055505050565b600081359050610d2181611446565b92915050565b600081519050610d368161145d565b92915050565b600081359050610d4b81611474565b92915050565b60008060408385031215610d6457600080fd5b6000610d7285828601610d12565b9250506020610d8385828601610d12565b9150509250929050565b600060208284031215610d9f57600080fd5b6000610dad84828501610d27565b91505092915050565b600060208284031215610dc857600080fd5b6000610dd684828501610d3c565b91505092915050565b600080600060608486031215610df457600080fd5b6000610e0286828701610d3c565b9350506020610e1386828701610d12565b9250506040610e2486828701610d3c565b9150509250925092565b600080600060608486031215610e4357600080fd5b6000610e5186828701610d3c565b9350506020610e6286828701610d3c565b9250506040610e7386828701610d3c565b9150509250925092565b610e868161123d565b82525050565b610e9581611285565b82525050565b6000610ea8601683611117565b9150610eb382611350565b602082019050919050565b6000610ecb600d83611117565b9150610ed682611379565b602082019050919050565b6000610eee600d83611117565b9150610ef9826113a2565b602082019050919050565b6000610f11601983611117565b9150610f1c826113cb565b602082019050919050565b6000610f34601983611117565b9150610f3f826113f4565b602082019050919050565b6000610f57601b83611117565b9150610f628261141d565b602082019050919050565b610f768161127b565b82525050565b6000602082019050610f916000830184610e7d565b92915050565b6000606082019050610fac6000830186610e7d565b610fb96020830185610e7d565b610fc66040830184610f6d565b949350505050565b6000604082019050610fe36000830185610e7d565b610ff06020830184610f6d565b9392505050565b600060808201905061100c6000830187610e8c565b6110196020830186610e8c565b6110266040830185610f6d565b6110336060830184610f6d565b95945050505050565b6000602082019050818103600083015261105581610e9b565b9050919050565b6000602082019050818103600083015261107581610ebe565b9050919050565b6000602082019050818103600083015261109581610ee1565b9050919050565b600060208201905081810360008301526110b581610f04565b9050919050565b600060208201905081810360008301526110d581610f27565b9050919050565b600060208201905081810360008301526110f581610f4a565b9050919050565b60006020820190506111116000830184610f6d565b92915050565b600082825260208201905092915050565b60006111338261127b565b915061113e8361127b565b9250827fffffffffffffffffffffffffffffffffffffffffffffffffffffffffffffffff03821115611173576111726112f2565b5b828201905092915050565b60006111898261127b565b91506111948361127b565b9250826111a4576111a3611321565b5b828204905092915050565b60006111ba8261127b565b91506111c58361127b565b9250817fffffffffffffffffffffffffffffffffffffffffffffffffffffffffffffffff04831182151516156111fe576111fd6112f2565b5b828202905092915050565b60006112148261127b565b915061121f8361127b565b925082821015611232576112316112f2565b5b828203905092915050565b60006112488261125b565b9050919050565b60008115159050919050565b600073ffffffffffffffffffffffffffffffffffffffff82169050919050565b6000819050919050565b600061129082611297565b9050919050565b60006112a28261125b565b9050919050565b60006112b48261127b565b91507fffffffffffffffffffffffffffffffffffffffffffffffffffffffffffffffff8214156112e7576112e66112f2565b5b600182019050919050565b7f4e487b7100000000000000000000000000000000000000000000000000000000600052601160045260246000fd5b7f4e487b7100000000000000000000000000000000000000000000000000000000600052601260045260246000fd5b7f496e73756666696369656e74206c697175696469747900000000000000000000600082015250565b7f496e76616c696420746f6b656e00000000000000000000000000000000000000600082015250565b7f4e6f7420746865206f776e657200000000000000000000000000000000000000600082015250565b7f5472616e73666572206f6620746f6b656e31206661696c656400000000000000600082015250565b7f5472616e73666572206f6620746f6b656e32206661696c656400000000000000600082015250565b7f5472616e73666572206f6620746f6b656e4f7574206661696c65640000000000600082015250565b61144f8161123d565b811461145a57600080fd5b50565b6114668161124f565b811461147157600080fd5b50565b61147d8161127b565b811461148857600080fd5b5056fea2646970667358221220bf62729a696e89be7f7283b875ad27b24563a8f5c672ec66329aa60f222f092164736f6c63430008010033",
  "linkReferences": {},
  "deployedLinkReferences": {}
}