{
  "_format": "hh-sol-artifact-1",
  "contractName": "Staking",
  "sourceName": "contracts/Staking.sol",
  "abi": [
    {
      "inputs": [
        {
          "internalType": "address",
          "name": "_stakingToken",
          "type": "address"
        },
        {
          "internalType": "address",
          "name": "_rewardToken",
          "type": "address"
        }
      ],
      "stateMutability": "nonpayable",
      "type": "constructor"
    },
    {
      "inputs": [
        {
          "internalType": "address",
          "name": "",
          "type": "address"
        }
      ],
      "name": "balanceOf",
      "outputs": [
        {
          "internalType": "uint256",
          "name": "",
          "type": "uint256"
        }
      ],
      "stateMutability": "view",
      "type": "function"
    },
    {
      "inputs": [],
      "name": "duration",
      "outputs": [
        {
          "internalType": "uint256",
          "name": "",
          "type": "uint256"
        }
      ],
      "stateMutability": "view",
      "type": "function"
    },
    {
      "inputs": [
        {
          "internalType": "address",
          "name": "_account",
          "type": "address"
        }
      ],
      "name": "earned",
      "outputs": [
        {
          "internalType": "uint256",
          "name": "",
          "type": "uint256"
        }
      ],
      "stateMutability": "view",
      "type": "function"
    },
    {
      "inputs": [],
      "name": "finishAt",
      "outputs": [
        {
          "internalType": "uint256",
          "name": "",
          "type": "uint256"
        }
      ],
      "stateMutability": "view",
      "type": "function"
    },
    {
      "inputs": [],
      "name": "getReward",
      "outputs": [],
      "stateMutability": "nonpayable",
      "type": "function"
    },
    {
      "inputs": [],
      "name": "lastTimeRewardApplicable",
      "outputs": [
        {
          "internalType": "uint256",
          "name": "",
          "type": "uint256"
        }
      ],
      "stateMutability": "view",
      "type": "function"
    },
    {
      "inputs": [
        {
          "internalType": "uint256",
          "name": "_amount",
          "type": "uint256"
        }
      ],
      "name": "notifyRewardAmount",
      "outputs": [],
      "stateMutability": "nonpayable",
      "type": "function"
    },
    {
      "inputs": [],
      "name": "owner",
      "outputs": [
        {
          "internalType": "address",
          "name": "",
          "type": "address"
        }
      ],
      "stateMutability": "view",
      "type": "function"
    },
    {
      "inputs": [],
      "name": "rewardPerToken",
      "outputs": [
        {
          "internalType": "uint256",
          "name": "",
          "type": "uint256"
        }
      ],
      "stateMutability": "view",
      "type": "function"
    },
    {
      "inputs": [],
      "name": "rewardPerTokenStored",
      "outputs": [
        {
          "internalType": "uint256",
          "name": "",
          "type": "uint256"
        }
      ],
      "stateMutability": "view",
      "type": "function"
    },
    {
      "inputs": [],
      "name": "rewardRate",
      "outputs": [
        {
          "internalType": "uint256",
          "name": "",
          "type": "uint256"
        }
      ],
      "stateMutability": "view",
      "type": "function"
    },
    {
      "inputs": [
        {
          "internalType": "address",
          "name": "",
          "type": "address"
        }
      ],
      "name": "rewards",
      "outputs": [
        {
          "internalType": "uint256",
          "name": "",
          "type": "uint256"
        }
      ],
      "stateMutability": "view",
      "type": "function"
    },
    {
      "inputs": [],
      "name": "rewardsToken",
      "outputs": [
        {
          "internalType": "contract IERC20",
          "name": "",
          "type": "address"
        }
      ],
      "stateMutability": "view",
      "type": "function"
    },
    {
      "inputs": [
        {
          "internalType": "uint256",
          "name": "_duration",
          "type": "uint256"
        }
      ],
      "name": "setRewardsDuration",
      "outputs": [],
      "stateMutability": "nonpayable",
      "type": "function"
    },
    {
      "inputs": [
        {
          "internalType": "uint256",
          "name": "_amount",
          "type": "uint256"
        }
      ],
      "name": "stake",
      "outputs": [],
      "stateMutability": "nonpayable",
      "type": "function"
    },
    {
      "inputs": [],
      "name": "stakingToken",
      "outputs": [
        {
          "internalType": "contract IERC20",
          "name": "",
          "type": "address"
        }
      ],
      "stateMutability": "view",
      "type": "function"
    },
    {
      "inputs": [],
      "name": "totalSupply",
      "outputs": [
        {
          "internalType": "uint256",
          "name": "",
          "type": "uint256"
        }
      ],
      "stateMutability": "view",
      "type": "function"
    },
    {
      "inputs": [],
      "name": "updatedAt",
      "outputs": [
        {
          "internalType": "uint256",
          "name": "",
          "type": "uint256"
        }
      ],
      "stateMutability": "view",
      "type": "function"
    },
    {
      "inputs": [
        {
          "internalType": "address",
          "name": "",
          "type": "address"
        }
      ],
      "name": "userRewardPerTokenPaid",
      "outputs": [
        {
          "internalType": "uint256",
          "name": "",
          "type": "uint256"
        }
      ],
      "stateMutability": "view",
      "type": "function"
    },
    {
      "inputs": [
        {
          "internalType": "uint256",
          "name": "_amount",
          "type": "uint256"
        }
      ],
      "name": "withdraw",
      "outputs": [],
      "stateMutability": "nonpayable",
      "type": "function"
    }
  ],
  "bytecode": "0x60c06040523480156200001157600080fd5b5060405162001d9638038062001d96833981810160405281019062000037919062000104565b336000806101000a81548173ffffffffffffffffffffffffffffffffffffffff021916908373ffffffffffffffffffffffffffffffffffffffff1602179055508173ffffffffffffffffffffffffffffffffffffffff1660808173ffffffffffffffffffffffffffffffffffffffff1660601b815250508073ffffffffffffffffffffffffffffffffffffffff1660a08173ffffffffffffffffffffffffffffffffffffffff1660601b81525050505062000193565b600081519050620000fe8162000179565b92915050565b600080604083850312156200011857600080fd5b60006200012885828601620000ed565b92505060206200013b85828601620000ed565b9150509250929050565b6000620001528262000159565b9050919050565b600073ffffffffffffffffffffffffffffffffffffffff82169050919050565b620001848162000145565b81146200019057600080fd5b50565b60805160601c60a05160601c611bbb620001db6000396000818161093e01528181610bcd0152610f6601526000818161067201528181610c9e0152610d660152611bbb6000f3fe608060405234801561001057600080fd5b506004361061012b5760003560e01c80637519ab50116100ad578063a694fc3a11610071578063a694fc3a14610322578063cc1a378f1461033e578063cd3daf9d1461035a578063d1af0c7d14610378578063df136d65146103965761012b565b80637519ab501461027a5780637b0a47ee1461029857806380faa57d146102b65780638b876347146102d45780638da5cb5b146103045761012b565b80633c6b16ab116100f45780633c6b16ab146101e85780633d18b9121461020457806367d3b4881461020e57806370a082311461022c57806372f702f31461025c5761012b565b80628cc262146101305780630700037d146101605780630fb5a6b41461019057806318160ddd146101ae5780632e1a7d4d146101cc575b600080fd5b61014a6004803603810190610145919061131a565b6103b4565b604051610157919061173c565b60405180910390f35b61017a6004803603810190610175919061131a565b6104b6565b604051610187919061173c565b60405180910390f35b6101986104ce565b6040516101a5919061173c565b60405180910390f35b6101b66104d4565b6040516101c3919061173c565b60405180910390f35b6101e660048036038101906101e1919061136c565b6104da565b005b61020260048036038101906101fd919061136c565b610722565b005b61020c610a55565b005b610216610c7e565b604051610223919061173c565b60405180910390f35b6102466004803603810190610241919061131a565b610c84565b604051610253919061173c565b60405180910390f35b610264610c9c565b60405161027191906115ff565b60405180910390f35b610282610cc0565b60405161028f919061173c565b60405180910390f35b6102a0610cc6565b6040516102ad919061173c565b60405180910390f35b6102be610ccc565b6040516102cb919061173c565b60405180910390f35b6102ee60048036038101906102e9919061131a565b610cdf565b6040516102fb919061173c565b60405180910390f35b61030c610cf7565b6040516103199190611584565b60405180910390f35b61033c6004803603810190610337919061136c565b610d1b565b005b6103586004803603810190610353919061136c565b610e1d565b005b610362610ef9565b60405161036f919061173c565b60405180910390f35b610380610f64565b60405161038d91906115ff565b60405180910390f35b61039e610f88565b6040516103ab919061173c565b60405180910390f35b6000600760008373ffffffffffffffffffffffffffffffffffffffff1673ffffffffffffffffffffffffffffffffffffffff16815260200190815260200160002054670de0b6b3a7640000600660008573ffffffffffffffffffffffffffffffffffffffff1673ffffffffffffffffffffffffffffffffffffffff16815260200190815260200160002054610447610ef9565b610451919061186a565b600960008673ffffffffffffffffffffffffffffffffffffffff1673ffffffffffffffffffffffffffffffffffffffff1681526020019081526020016000205461049b9190611810565b6104a591906117df565b6104af9190611789565b9050919050565b60076020528060005260406000206000915090505481565b60015481565b60085481565b336104e3610ef9565b6005819055506104f1610ccc565b600381905550600073ffffffffffffffffffffffffffffffffffffffff168173ffffffffffffffffffffffffffffffffffffffff16146105be57610534816103b4565b600760008373ffffffffffffffffffffffffffffffffffffffff1673ffffffffffffffffffffffffffffffffffffffff16815260200190815260200160002081905550600554600660008373ffffffffffffffffffffffffffffffffffffffff1673ffffffffffffffffffffffffffffffffffffffff168152602001908152602001600020819055505b60008211610601576040517f08c379a00000000000000000000000000000000000000000000000000000000081526004016105f8906116fc565b60405180910390fd5b81600960003373ffffffffffffffffffffffffffffffffffffffff1673ffffffffffffffffffffffffffffffffffffffff1681526020019081526020016000206000828254610650919061186a565b925050819055508160086000828254610669919061186a565b925050819055507f000000000000000000000000000000000000000000000000000000000000000073ffffffffffffffffffffffffffffffffffffffff1663a9059cbb33846040518363ffffffff1660e01b81526004016106cb9291906115d6565b602060405180830381600087803b1580156106e557600080fd5b505af11580156106f9573d6000803e3d6000fd5b505050506040513d601f19601f8201168201806040525081019061071d9190611343565b505050565b60008054906101000a900473ffffffffffffffffffffffffffffffffffffffff1673ffffffffffffffffffffffffffffffffffffffff163373ffffffffffffffffffffffffffffffffffffffff16146107b0576040517f08c379a00000000000000000000000000000000000000000000000000000000081526004016107a79061167c565b60405180910390fd5b60006107ba610ef9565b6005819055506107c8610ccc565b600381905550600073ffffffffffffffffffffffffffffffffffffffff168173ffffffffffffffffffffffffffffffffffffffff16146108955761080b816103b4565b600760008373ffffffffffffffffffffffffffffffffffffffff1673ffffffffffffffffffffffffffffffffffffffff16815260200190815260200160002081905550600554600660008373ffffffffffffffffffffffffffffffffffffffff1673ffffffffffffffffffffffffffffffffffffffff168152602001908152602001600020819055505b60025442106108b757600154826108ac91906117df565b6004819055506108f7565b6000600454426002546108ca919061186a565b6108d49190611810565b905060015481846108e59190611789565b6108ef91906117df565b600481905550505b60006004541161093c576040517f08c379a00000000000000000000000000000000000000000000000000000000081526004016109339061171c565b60405180910390fd5b7f000000000000000000000000000000000000000000000000000000000000000073ffffffffffffffffffffffffffffffffffffffff166370a08231306040518263ffffffff1660e01b81526004016109959190611584565b60206040518083038186803b1580156109ad57600080fd5b505afa1580156109c1573d6000803e3d6000fd5b505050506040513d601f19601f820116820180604052508101906109e59190611395565b6001546004546109f59190611810565b1115610a36576040517f08c379a0000000000000000000000000000000000000000000000000000000008152600401610a2d906116bc565b60405180910390fd5b60015442610a449190611789565b600281905550426003819055505050565b33610a5e610ef9565b600581905550610a6c610ccc565b600381905550600073ffffffffffffffffffffffffffffffffffffffff168173ffffffffffffffffffffffffffffffffffffffff1614610b3957610aaf816103b4565b600760008373ffffffffffffffffffffffffffffffffffffffff1673ffffffffffffffffffffffffffffffffffffffff16815260200190815260200160002081905550600554600660008373ffffffffffffffffffffffffffffffffffffffff1673ffffffffffffffffffffffffffffffffffffffff168152602001908152602001600020819055505b6000600760003373ffffffffffffffffffffffffffffffffffffffff1673ffffffffffffffffffffffffffffffffffffffff1681526020019081526020016000205490506000811115610c7a576000600760003373ffffffffffffffffffffffffffffffffffffffff1673ffffffffffffffffffffffffffffffffffffffff168152602001908152602001600020819055507f000000000000000000000000000000000000000000000000000000000000000073ffffffffffffffffffffffffffffffffffffffff1663a9059cbb33836040518363ffffffff1660e01b8152600401610c269291906115d6565b602060405180830381600087803b158015610c4057600080fd5b505af1158015610c54573d6000803e3d6000fd5b505050506040513d601f19601f82011682018060405250810190610c789190611343565b505b5050565b60025481565b60096020528060005260406000206000915090505481565b7f000000000000000000000000000000000000000000000000000000000000000081565b60035481565b60045481565b6000610cda60025442610f8e565b905090565b60066020528060005260406000206000915090505481565b60008054906101000a900473ffffffffffffffffffffffffffffffffffffffff1681565b60008111610d5e576040517f08c379a0000000000000000000000000000000000000000000000000000000008152600401610d55906116fc565b60405180910390fd5b610dab3330837f000000000000000000000000000000000000000000000000000000000000000073ffffffffffffffffffffffffffffffffffffffff16610fa8909392919063ffffffff16565b80600960003373ffffffffffffffffffffffffffffffffffffffff1673ffffffffffffffffffffffffffffffffffffffff1681526020019081526020016000206000828254610dfa9190611789565b925050819055508060086000828254610e139190611789565b9250508190555050565b60008054906101000a900473ffffffffffffffffffffffffffffffffffffffff1673ffffffffffffffffffffffffffffffffffffffff163373ffffffffffffffffffffffffffffffffffffffff1614610eab576040517f08c379a0000000000000000000000000000000000000000000000000000000008152600401610ea29061167c565b60405180910390fd5b4260025410610eef576040517f08c379a0000000000000000000000000000000000000000000000000000000008152600401610ee69061163c565b60405180910390fd5b8060018190555050565b6000806008541415610f0f576005549050610f61565b600854670de0b6b3a7640000600354610f26610ccc565b610f30919061186a565b600454610f3d9190611810565b610f479190611810565b610f5191906117df565b600554610f5e9190611789565b90505b90565b7f000000000000000000000000000000000000000000000000000000000000000081565b60055481565b600081831115610f9e5781610fa0565b825b905092915050565b61102b846323b872dd60e01b858585604051602401610fc99392919061159f565b604051602081830303815290604052907bffffffffffffffffffffffffffffffffffffffffffffffffffffffff19166020820180517bffffffffffffffffffffffffffffffffffffffffffffffffffffffff8381831617835250505050611031565b50505050565b6000611093826040518060400160405280602081526020017f5361666545524332303a206c6f772d6c6576656c2063616c6c206661696c65648152508573ffffffffffffffffffffffffffffffffffffffff166110f89092919063ffffffff16565b90506000815111156110f357808060200190518101906110b39190611343565b6110f2576040517f08c379a00000000000000000000000000000000000000000000000000000000081526004016110e9906116dc565b60405180910390fd5b5b505050565b60606111078484600085611110565b90509392505050565b606082471015611155576040517f08c379a000000000000000000000000000000000000000000000000000000000815260040161114c9061165c565b60405180910390fd5b6000808673ffffffffffffffffffffffffffffffffffffffff16858760405161117e919061156d565b60006040518083038185875af1925050503d80600081146111bb576040519150601f19603f3d011682016040523d82523d6000602084013e6111c0565b606091505b50915091506111d1878383876111dd565b92505050949350505050565b6060831561124057600083511415611238576111f885611253565b611237576040517f08c379a000000000000000000000000000000000000000000000000000000000815260040161122e9061169c565b60405180910390fd5b5b82905061124b565b61124a8383611276565b5b949350505050565b6000808273ffffffffffffffffffffffffffffffffffffffff163b119050919050565b6000825111156112895781518083602001fd5b806040517f08c379a00000000000000000000000000000000000000000000000000000000081526004016112bd919061161a565b60405180910390fd5b6000813590506112d581611b40565b92915050565b6000815190506112ea81611b57565b92915050565b6000813590506112ff81611b6e565b92915050565b60008151905061131481611b6e565b92915050565b60006020828403121561132c57600080fd5b600061133a848285016112c6565b91505092915050565b60006020828403121561135557600080fd5b6000611363848285016112db565b91505092915050565b60006020828403121561137e57600080fd5b600061138c848285016112f0565b91505092915050565b6000602082840312156113a757600080fd5b60006113b584828501611305565b91505092915050565b6113c78161189e565b82525050565b60006113d882611757565b6113e2818561176d565b93506113f281856020860161190a565b80840191505092915050565b611407816118e6565b82525050565b600061141882611762565b6114228185611778565b935061143281856020860161190a565b61143b8161199b565b840191505092915050565b6000611453601c83611778565b915061145e826119ac565b602082019050919050565b6000611476602683611778565b9150611481826119d5565b604082019050919050565b6000611499600e83611778565b91506114a482611a24565b602082019050919050565b60006114bc601d83611778565b91506114c782611a4d565b602082019050919050565b60006114df601783611778565b91506114ea82611a76565b602082019050919050565b6000611502602a83611778565b915061150d82611a9f565b604082019050919050565b6000611525600a83611778565b915061153082611aee565b602082019050919050565b6000611548600f83611778565b915061155382611b17565b602082019050919050565b611567816118dc565b82525050565b600061157982846113cd565b915081905092915050565b600060208201905061159960008301846113be565b92915050565b60006060820190506115b460008301866113be565b6115c160208301856113be565b6115ce604083018461155e565b949350505050565b60006040820190506115eb60008301856113be565b6115f8602083018461155e565b9392505050565b600060208201905061161460008301846113fe565b92915050565b60006020820190508181036000830152611634818461140d565b905092915050565b6000602082019050818103600083015261165581611446565b9050919050565b6000602082019050818103600083015261167581611469565b9050919050565b600060208201905081810360008301526116958161148c565b9050919050565b600060208201905081810360008301526116b5816114af565b9050919050565b600060208201905081810360008301526116d5816114d2565b9050919050565b600060208201905081810360008301526116f5816114f5565b9050919050565b6000602082019050818103600083015261171581611518565b9050919050565b600060208201905081810360008301526117358161153b565b9050919050565b6000602082019050611751600083018461155e565b92915050565b600081519050919050565b600081519050919050565b600081905092915050565b600082825260208201905092915050565b6000611794826118dc565b915061179f836118dc565b9250827fffffffffffffffffffffffffffffffffffffffffffffffffffffffffffffffff038211156117d4576117d361193d565b5b828201905092915050565b60006117ea826118dc565b91506117f5836118dc565b9250826118055761180461196c565b5b828204905092915050565b600061181b826118dc565b9150611826836118dc565b9250817fffffffffffffffffffffffffffffffffffffffffffffffffffffffffffffffff048311821515161561185f5761185e61193d565b5b828202905092915050565b6000611875826118dc565b9150611880836118dc565b9250828210156118935761189261193d565b5b828203905092915050565b60006118a9826118bc565b9050919050565b60008115159050919050565b600073ffffffffffffffffffffffffffffffffffffffff82169050919050565b6000819050919050565b60006118f1826118f8565b9050919050565b6000611903826118bc565b9050919050565b60005b8381101561192857808201518184015260208101905061190d565b83811115611937576000848401525b50505050565b7f4e487b7100000000000000000000000000000000000000000000000000000000600052601160045260246000fd5b7f4e487b7100000000000000000000000000000000000000000000000000000000600052601260045260246000fd5b6000601f19601f8301169050919050565b7f726577617264206475726174696f6e206e6f742066696e697368656400000000600082015250565b7f416464726573733a20696e73756666696369656e742062616c616e636520666f60008201527f722063616c6c0000000000000000000000000000000000000000000000000000602082015250565b7f6e6f7420617574686f72697a6564000000000000000000000000000000000000600082015250565b7f416464726573733a2063616c6c20746f206e6f6e2d636f6e7472616374000000600082015250565b7f72657761726420616d6f756e74203e2062616c616e6365000000000000000000600082015250565b7f5361666545524332303a204552433230206f7065726174696f6e20646964206e60008201527f6f74207375636365656400000000000000000000000000000000000000000000602082015250565b7f616d6f756e74203d203000000000000000000000000000000000000000000000600082015250565b7f7265776172642072617465203d20300000000000000000000000000000000000600082015250565b611b498161189e565b8114611b5457600080fd5b50565b611b60816118b0565b8114611b6b57600080fd5b50565b611b77816118dc565b8114611b8257600080fd5b5056fea26469706673582212206cc099a54455c8cbfdf2f7b5f65200766771ec8cc8252920b1b21e1c158cbcad64736f6c63430008010033",
  "linkReferences": {},
  "deployedLinkReferences": {}
}