{
  "_format": "hh-sol-artifact-1",
  "contractName": "TokenFactory",
  "sourceName": "contracts/TokenFactory.sol",
  "abi": [
    {
      "anonymous": false,
      "inputs": [
        {
          "indexed": true,
          "internalType": "address",
          "name": "tokenAddress",
          "type": "address"
        }
      ],
      "name": "TokenCreated",
      "type": "event"
    },
    {
      "inputs": [
        {
          "internalType": "string",
          "name": "_name",
          "type": "string"
        },
        {
          "internalType": "string",
          "name": "_symbol",
          "type": "string"
        },
        {
          "internalType": "uint256",
          "name": "_initialSupply",
          "type": "uint256"
        }
      ],
      "name": "createToken",
      "outputs": [
        {
          "internalType": "address",
          "name": "",
          "type": "address"
        }
      ],
      "stateMutability": "nonpayable",
      "type": "function"
    }
  ],
  "bytecode": "0x608060405234801561001057600080fd5b50611d8e806100206000396000f3fe60806040523480156200001157600080fd5b50600436106200002e5760003560e01c80635b0605301462000033575b600080fd5b6200005160048036038101906200004b919062000190565b62000069565b6040516200006091906200027b565b60405180910390f35b6000808484846040516200007d90620000f9565b6200008b9392919062000298565b604051809103906000f080158015620000a8573d6000803e3d6000fd5b5090508073ffffffffffffffffffffffffffffffffffffffff167f2e2b3f61b70d2d131b2a807371103cc98d51adcaa5e9a8f9c32658ad8426e74e60405160405180910390a2809150509392505050565b6118e7806200047283390190565b60006200011e62000118846200030c565b620002e3565b9050828152602081018484840111156200013757600080fd5b620001448482856200039c565b509392505050565b600082601f8301126200015e57600080fd5b81356200017084826020860162000107565b91505092915050565b6000813590506200018a8162000457565b92915050565b600080600060608486031215620001a657600080fd5b600084013567ffffffffffffffff811115620001c157600080fd5b620001cf868287016200014c565b935050602084013567ffffffffffffffff811115620001ed57600080fd5b620001fb868287016200014c565b92505060406200020e8682870162000179565b9150509250925092565b62000223816200035e565b82525050565b6000620002368262000342565b6200024281856200034d565b935062000254818560208601620003ab565b6200025f8162000446565b840191505092915050565b620002758162000392565b82525050565b600060208201905062000292600083018462000218565b92915050565b60006060820190508181036000830152620002b4818662000229565b90508181036020830152620002ca818562000229565b9050620002db60408301846200026a565b949350505050565b6000620002ef62000302565b9050620002fd8282620003e1565b919050565b6000604051905090565b600067ffffffffffffffff8211156200032a576200032962000417565b5b620003358262000446565b9050602081019050919050565b600081519050919050565b600082825260208201905092915050565b60006200036b8262000372565b9050919050565b600073ffffffffffffffffffffffffffffffffffffffff82169050919050565b6000819050919050565b82818337600083830152505050565b60005b83811015620003cb578082015181840152602081019050620003ae565b83811115620003db576000848401525b50505050565b620003ec8262000446565b810181811067ffffffffffffffff821117156200040e576200040d62000417565b5b80604052505050565b7f4e487b7100000000000000000000000000000000000000000000000000000000600052604160045260246000fd5b6000601f19601f8301169050919050565b620004628162000392565b81146200046e57600080fd5b5056fe60806040526012600260006101000a81548160ff021916908360ff1602179055503480156200002d57600080fd5b50604051620018e7380380620018e78339818101604052810190620000539190620002ab565b82600090805190602001906200006b92919062000172565b5081600190805190602001906200008492919062000172565b50600260009054906101000a900460ff1660ff16600a620000a691906200041b565b81620000b3919062000558565b600381905550600354600460003373ffffffffffffffffffffffffffffffffffffffff1673ffffffffffffffffffffffffffffffffffffffff168152602001908152602001600020819055503373ffffffffffffffffffffffffffffffffffffffff16600073ffffffffffffffffffffffffffffffffffffffff167fddf252ad1be2c89b69c2b068fc378daa952ba7f163c4a11628f55a4df523b3ef60035460405162000161919062000344565b60405180910390a35050506200072a565b8280546200018090620005f9565b90600052602060002090601f016020900481019282620001a45760008555620001f0565b82601f10620001bf57805160ff1916838001178555620001f0565b82800160010185558215620001f0579182015b82811115620001ef578251825591602001919060010190620001d2565b5b509050620001ff919062000203565b5090565b5b808211156200021e57600081600090555060010162000204565b5090565b60006200023962000233846200038a565b62000361565b9050828152602081018484840111156200025257600080fd5b6200025f848285620005c3565b509392505050565b600082601f8301126200027957600080fd5b81516200028b84826020860162000222565b91505092915050565b600081519050620002a58162000710565b92915050565b600080600060608486031215620002c157600080fd5b600084015167ffffffffffffffff811115620002dc57600080fd5b620002ea8682870162000267565b935050602084015167ffffffffffffffff8111156200030857600080fd5b620003168682870162000267565b9250506040620003298682870162000294565b9150509250925092565b6200033e81620005b9565b82525050565b60006020820190506200035b600083018462000333565b92915050565b60006200036d62000380565b90506200037b82826200062f565b919050565b6000604051905090565b600067ffffffffffffffff821115620003a857620003a7620006c3565b5b620003b382620006f2565b9050602081019050919050565b6000808291508390505b60018511156200041257808604811115620003ea57620003e962000665565b5b6001851615620003fa5780820291505b80810290506200040a8562000703565b9450620003ca565b94509492505050565b60006200042882620005b9565b91506200043583620005b9565b9250620004647fffffffffffffffffffffffffffffffffffffffffffffffffffffffffffffffff84846200046c565b905092915050565b6000826200047e576001905062000551565b816200048e576000905062000551565b8160018114620004a75760028114620004b257620004e8565b600191505062000551565b60ff841115620004c757620004c662000665565b5b8360020a915084821115620004e157620004e062000665565b5b5062000551565b5060208310610133831016604e8410600b8410161715620005225782820a9050838111156200051c576200051b62000665565b5b62000551565b620005318484846001620003c0565b925090508184048111156200054b576200054a62000665565b5b81810290505b9392505050565b60006200056582620005b9565b91506200057283620005b9565b9250817fffffffffffffffffffffffffffffffffffffffffffffffffffffffffffffffff0483118215151615620005ae57620005ad62000665565b5b828202905092915050565b6000819050919050565b60005b83811015620005e3578082015181840152602081019050620005c6565b83811115620005f3576000848401525b50505050565b600060028204905060018216806200061257607f821691505b6020821081141562000629576200062862000694565b5b50919050565b6200063a82620006f2565b810181811067ffffffffffffffff821117156200065c576200065b620006c3565b5b80604052505050565b7f4e487b7100000000000000000000000000000000000000000000000000000000600052601160045260246000fd5b7f4e487b7100000000000000000000000000000000000000000000000000000000600052602260045260246000fd5b7f4e487b7100000000000000000000000000000000000000000000000000000000600052604160045260246000fd5b6000601f19601f8301169050919050565b60008160011c9050919050565b6200071b81620005b9565b81146200072757600080fd5b50565b6111ad806200073a6000396000f3fe608060405234801561001057600080fd5b50600436106100935760003560e01c8063313ce56711610066578063313ce5671461013457806370a082311461015257806395d89b4114610182578063a9059cbb146101a0578063dd62ed3e146101d057610093565b806306fdde0314610098578063095ea7b3146100b657806318160ddd146100e657806323b872dd14610104575b600080fd5b6100a0610200565b6040516100ad9190610d8f565b60405180910390f35b6100d060048036038101906100cb9190610c23565b61028e565b6040516100dd9190610d74565b60405180910390f35b6100ee6103ef565b6040516100fb9190610e51565b60405180910390f35b61011e60048036038101906101199190610bd4565b6103f5565b60405161012b9190610d74565b60405180910390f35b61013c6107c6565b6040516101499190610e6c565b60405180910390f35b61016c60048036038101906101679190610b6f565b6107d9565b6040516101799190610e51565b60405180910390f35b61018a610822565b6040516101979190610d8f565b60405180910390f35b6101ba60048036038101906101b59190610c23565b6108b0565b6040516101c79190610d74565b60405180910390f35b6101ea60048036038101906101e59190610b98565b610abe565b6040516101f79190610e51565b60405180910390f35b6000805461020d90610fb5565b80601f016020809104026020016040519081016040528092919081815260200182805461023990610fb5565b80156102865780601f1061025b57610100808354040283529160200191610286565b820191906000526020600020905b81548152906001019060200180831161026957829003601f168201915b505050505081565b60008073ffffffffffffffffffffffffffffffffffffffff168373ffffffffffffffffffffffffffffffffffffffff1614156102ff576040517f08c379a00000000000000000000000000000000000000000000000000000000081526004016102f690610db1565b60405180910390fd5b81600560003373ffffffffffffffffffffffffffffffffffffffff1673ffffffffffffffffffffffffffffffffffffffff16815260200190815260200160002060008573ffffffffffffffffffffffffffffffffffffffff1673ffffffffffffffffffffffffffffffffffffffff168152602001908152602001600020819055508273ffffffffffffffffffffffffffffffffffffffff163373ffffffffffffffffffffffffffffffffffffffff167f8c5be1e5ebec7d5bd14f71427d1e84f3dd0314c0f7b2291e5b200ac8c7c3b925846040516103dd9190610e51565b60405180910390a36001905092915050565b60035481565b60008073ffffffffffffffffffffffffffffffffffffffff168473ffffffffffffffffffffffffffffffffffffffff161415610466576040517f08c379a000000000000000000000000000000000000000000000000000000000815260040161045d90610e31565b60405180910390fd5b600073ffffffffffffffffffffffffffffffffffffffff168373ffffffffffffffffffffffffffffffffffffffff1614156104d6576040517f08c379a00000000000000000000000000000000000000000000000000000000081526004016104cd90610e11565b60405180910390fd5b81600460008673ffffffffffffffffffffffffffffffffffffffff1673ffffffffffffffffffffffffffffffffffffffff168152602001908152602001600020541015610558576040517f08c379a000000000000000000000000000000000000000000000000000000000815260040161054f90610df1565b60405180910390fd5b81600560008673ffffffffffffffffffffffffffffffffffffffff1673ffffffffffffffffffffffffffffffffffffffff16815260200190815260200160002060003373ffffffffffffffffffffffffffffffffffffffff1673ffffffffffffffffffffffffffffffffffffffff168152602001908152602001600020541015610617576040517f08c379a000000000000000000000000000000000000000000000000000000000815260040161060e90610dd1565b60405180910390fd5b81600460008673ffffffffffffffffffffffffffffffffffffffff1673ffffffffffffffffffffffffffffffffffffffff16815260200190815260200160002060008282546106669190610ef9565b9250508190555081600460008573ffffffffffffffffffffffffffffffffffffffff1673ffffffffffffffffffffffffffffffffffffffff16815260200190815260200160002060008282546106bc9190610ea3565b9250508190555081600560008673ffffffffffffffffffffffffffffffffffffffff1673ffffffffffffffffffffffffffffffffffffffff16815260200190815260200160002060003373ffffffffffffffffffffffffffffffffffffffff1673ffffffffffffffffffffffffffffffffffffffff168152602001908152602001600020600082825461074f9190610ef9565b925050819055508273ffffffffffffffffffffffffffffffffffffffff168473ffffffffffffffffffffffffffffffffffffffff167fddf252ad1be2c89b69c2b068fc378daa952ba7f163c4a11628f55a4df523b3ef846040516107b39190610e51565b60405180910390a3600190509392505050565b600260009054906101000a900460ff1681565b6000600460008373ffffffffffffffffffffffffffffffffffffffff1673ffffffffffffffffffffffffffffffffffffffff168152602001908152602001600020549050919050565b6001805461082f90610fb5565b80601f016020809104026020016040519081016040528092919081815260200182805461085b90610fb5565b80156108a85780601f1061087d576101008083540402835291602001916108a8565b820191906000526020600020905b81548152906001019060200180831161088b57829003601f168201915b505050505081565b60008073ffffffffffffffffffffffffffffffffffffffff168373ffffffffffffffffffffffffffffffffffffffff161415610921576040517f08c379a000000000000000000000000000000000000000000000000000000000815260040161091890610e11565b60405180910390fd5b81600460003373ffffffffffffffffffffffffffffffffffffffff1673ffffffffffffffffffffffffffffffffffffffff1681526020019081526020016000205410156109a3576040517f08c379a000000000000000000000000000000000000000000000000000000000815260040161099a90610df1565b60405180910390fd5b81600460003373ffffffffffffffffffffffffffffffffffffffff1673ffffffffffffffffffffffffffffffffffffffff16815260200190815260200160002060008282546109f29190610ef9565b9250508190555081600460008573ffffffffffffffffffffffffffffffffffffffff1673ffffffffffffffffffffffffffffffffffffffff1681526020019081526020016000206000828254610a489190610ea3565b925050819055508273ffffffffffffffffffffffffffffffffffffffff163373ffffffffffffffffffffffffffffffffffffffff167fddf252ad1be2c89b69c2b068fc378daa952ba7f163c4a11628f55a4df523b3ef84604051610aac9190610e51565b60405180910390a36001905092915050565b6000600560008473ffffffffffffffffffffffffffffffffffffffff1673ffffffffffffffffffffffffffffffffffffffff16815260200190815260200160002060008373ffffffffffffffffffffffffffffffffffffffff1673ffffffffffffffffffffffffffffffffffffffff16815260200190815260200160002054905092915050565b600081359050610b5481611149565b92915050565b600081359050610b6981611160565b92915050565b600060208284031215610b8157600080fd5b6000610b8f84828501610b45565b91505092915050565b60008060408385031215610bab57600080fd5b6000610bb985828601610b45565b9250506020610bca85828601610b45565b9150509250929050565b600080600060608486031215610be957600080fd5b6000610bf786828701610b45565b9350506020610c0886828701610b45565b9250506040610c1986828701610b5a565b9150509250925092565b60008060408385031215610c3657600080fd5b6000610c4485828601610b45565b9250506020610c5585828601610b5a565b9150509250929050565b610c6881610f3f565b82525050565b6000610c7982610e87565b610c838185610e92565b9350610c93818560208601610f82565b610c9c81611045565b840191505092915050565b6000610cb4601b83610e92565b9150610cbf82611056565b602082019050919050565b6000610cd7602183610e92565b9150610ce28261107f565b604082019050919050565b6000610cfa601483610e92565b9150610d05826110ce565b602082019050919050565b6000610d1d601c83610e92565b9150610d28826110f7565b602082019050919050565b6000610d40601e83610e92565b9150610d4b82611120565b602082019050919050565b610d5f81610f6b565b82525050565b610d6e81610f75565b82525050565b6000602082019050610d896000830184610c5f565b92915050565b60006020820190508181036000830152610da98184610c6e565b905092915050565b60006020820190508181036000830152610dca81610ca7565b9050919050565b60006020820190508181036000830152610dea81610cca565b9050919050565b60006020820190508181036000830152610e0a81610ced565b9050919050565b60006020820190508181036000830152610e2a81610d10565b9050919050565b60006020820190508181036000830152610e4a81610d33565b9050919050565b6000602082019050610e666000830184610d56565b92915050565b6000602082019050610e816000830184610d65565b92915050565b600081519050919050565b600082825260208201905092915050565b6000610eae82610f6b565b9150610eb983610f6b565b9250827fffffffffffffffffffffffffffffffffffffffffffffffffffffffffffffffff03821115610eee57610eed610fe7565b5b828201905092915050565b6000610f0482610f6b565b9150610f0f83610f6b565b925082821015610f2257610f21610fe7565b5b828203905092915050565b6000610f3882610f4b565b9050919050565b60008115159050919050565b600073ffffffffffffffffffffffffffffffffffffffff82169050919050565b6000819050919050565b600060ff82169050919050565b60005b83811015610fa0578082015181840152602081019050610f85565b83811115610faf576000848401525b50505050565b60006002820490506001821680610fcd57607f821691505b60208210811415610fe157610fe0611016565b5b50919050565b7f4e487b7100000000000000000000000000000000000000000000000000000000600052601160045260246000fd5b7f4e487b7100000000000000000000000000000000000000000000000000000000600052602260045260246000fd5b6000601f19601f8301169050919050565b7f417070726f766520746f20746865207a65726f20616464726573730000000000600082015250565b7f5472616e7366657220616d6f756e74206578636565647320616c6c6f77616e6360008201527f6500000000000000000000000000000000000000000000000000000000000000602082015250565b7f496e73756666696369656e742062616c616e6365000000000000000000000000600082015250565b7f5472616e7366657220746f20746865207a65726f206164647265737300000000600082015250565b7f5472616e736665722066726f6d20746865207a65726f20616464726573730000600082015250565b61115281610f2d565b811461115d57600080fd5b50565b61116981610f6b565b811461117457600080fd5b5056fea26469706673582212208c03a3fbb799b1a2252f611fdbf53dff5032f75272bf541ef0bdb315f7068abf64736f6c63430008010033a26469706673582212207b9e47a47565ec018f2356edc234f967bf4f810267ab4c76076c7563f254328e64736f6c63430008010033",
  "linkReferences": {},
  "deployedLinkReferences": {}
}